:100000000C9443010C9470010C9470010C947001D9
:100010000C9470010C9470010C9470010C9470019C
:100020000C9470010C9470010C9470010C9470018C
:100030000C9470010C9470010C9470010C9470017C
:100040000C9470010C9470010C9470010C9470016C
:100050000C9470010C9470010C9470010C94B139E3
:100060000C9470010C941D3D0C94653E0C94700131
:100070000C9470010C9470010C9470010C9470013C
:100080000C9470010C9470010C9470010C9470012C
:100090000C945D3D0C94A43E0C9470010C94700182
:1000A0000C9470010C9470010C9470010C9470010C
:1000B0000C9470010C9470010C9470010C947001FC
:1000C0000C9470010C9470010C9470010C949D3D83
:1000D0000C94E33E0C9470010C94DD3D0C94223F93
:1000E0000C947001084AD73B3BCE016E84BCBFFD27
:1000F000C12F3D6C74319ABD56833DDA3D00C77FF8
:1001000011BED9E4BB4C3E916BAAAABE0000008090
:100110003F43616D65726120646973636F6E6E65E4
:10012000637465640D0A0000002100240027002A82
:10013000002D003000330001010000040107010A16
:100140000100002200250028002B002E0031003481
:100150000002010000050108010B0100002000233E
:1001600000260029002C002F0032000001000003AF
:10017000010601090105050505070508080808022B
:100180000202020A0A080804040404010101010130
:100190000101010303030303030303040707070C1F
:1001A0000C0C0C0C0C0C0C020202020606060606D5
:1001B0000606060B0B0B0B0B0B0B0B010210202082
:1001C00008081020401020408002010201080402AB
:1001D0000101020408102040808040201008040221
:1001E000018004020180402010080402010804027A
:1001F0000101020408102040800102040810204080
:10020000800000090A02080B0C0D07060304010018
:1002100000000000000000000000000000000000DE
:100220000000000000000000000000000011100F9E
:1002300000000000000000000000000000000000BE
:1002400000000000000000494E46494E4954594EF6
:10025000414ECDCCCC3D0AD7233C17B7D13877CC13
:100260002B329595E6241FB14F0A00002041000073
:10027000C84200401C4620BCBE4CCA1B0E5AAEC52C
:100280009D743604924011241FBECFEFD1E2DEBF31
:10029000CDBF00E00CBF13E0A0E0B2E0E6E7F3E979
:1002A00000E00BBF02C007900D92A635B107D9F749
:1002B0001BBE18E0A6E5B3E001C01D92AD3CB1073E
:1002C000E1F712E0C6E8D2E004C02297FE010E94E6
:1002D0007349C238D107C9F70E94C8410C94B94983
:1002E0000C94000081E090E0F8940C94B9496627E2
:1002F00077270C94AC01FB01DC0102C001900D9248
:1003000041505040D8F70895FB01DC0101900D9257
:100310000020E1F70895FB019F01E8944230C4F00A
:100320004532B4F44A3029F497FB1EF49095819538
:100330009F4F642F77270E945D49805D8A330CF0C0
:10034000895D8193CB010097A1F716F45DE251938B
:100350001082C9010C942403A0E0B0E0E2EBF1E0CC
:100360000C948849EC015B016115710519F0FB01E2
:1003700091838083F9908F2D90E00E947749892B9B
:10038000C9F7FDE2FF1621F4F990EE24E39405C0CD
:100390002BE2F21609F4F990EE248E010150104080
:1003A000C80167E472E043E050E00E940C03892B2F
:1003B00001F58E010E5F1F4FC8016AE472E045E04F
:1003C00050E00E940C03892B19F48E01095F1F4F26
:1003D000A114B10419F0F50111830083E0FC04C0FD
:1003E00070E090E080E814C070E090E080E86FEF8B
:1003F00008C1C8016FE472E043E050E00E940C03C2
:10040000892B69F4A114B10429F470E090E080EC28
:100410006FE7F7C02296F501D183C083F6CF882419
:10042000992440E050E060E070E0EF2DE053EA30C6
:10043000A0F5F2E0EF2A8E2D90E09C01287030703C
:10044000E2FE06C0232B79F50894811C911C2BC079
:10045000232B19F0089481089108DB01CA0112E0EE
:10046000880F991FAA1FBB1F1A95D1F7480F591F54
:100470006A1F7B1F440F551F661F771F4E0F511DAC
:10048000611D711D483929E9520729E9620729E1EF
:10049000720748F084E0E82A06C0EE3F31F4E3FC3E
:1004A00039C098E0E92AF990C0CFE53311F0E53181
:1004B00089F529912D3219F4E0E1EE2A05C02B329D
:1004C00019F081E090E003C0299182E090E0E22FF2
:1004D000E053EA3018F0C81BD90B1CC020E030E014
:1004E000FCE020383F075CF4C901880F991F880F92
:1004F000991F280F391F220F331F2E0F311DE9912D
:10050000E053EA3068F3E4FE03C0309521953F4F95
:10051000820E931ECE2CDD24E1FE07C0A114B1048F
:1005200021F02197F501D183C083CB01BA010E944C
:10053000B5477B018C01F3E0CF22DD2423E0C21616
:10054000D10421F417FB109517F910955701680194
:10055000C801B70120E030E040E050E00E941847B9
:10056000882309F44AC097FE0DC026E6E22E22E059
:10057000F22E9094819491089394C0E2D0E000E030
:1005800010E012C09EE7E92E92E0F92EF6CFF701B7
:100590002591359145915491C601B5010E94974826
:1005A0005B016C018C1A9D0A8C169D0684F7D5950B
:1005B000C7950F5F1F4F0630110529F08CEF9FEF95
:1005C000E80EF91EF1CFC501D6017C018D018C2DFD
:1005D000880F8D2D881F8F3F51F0C601B50120E097
:1005E00030E040E050E00E941847882331F482E276
:1005F00090E09093CC088093CB087E2D9F2D802F88
:10060000612F272F392F482F562FB901CA01CDB797
:10061000DEB7ECE00C94A449FB01DC0141505040F2
:1006200088F08D9181341CF08B350CF4805E6591DF
:1006300061341CF06B350CF4605E861B611171F344
:10064000990B0895881BFCCFDC01FC01672F719189
:100650007723E1F7329704C07C916D9370836291A8
:10066000AE17BF07C8F30895289888EF8EBD0DB464
:1006700007FEFDCF1EBC0DB407FEFDCF289A8EB538
:10068000807C803491F1813420F4882309F45BC0AC
:100690000895803821F0803C09F063C050C028984C
:1006A00088ED8EBD0DB407FEFDCF1EBC0DB407FE58
:1006B000FDCF289A0EB401FC0CC028988AED8EBD9F
:1006C0000DB407FEFDCF89EC8EBD0DB407FEFDCF46
:1006D00033C028988AED8EBD0DB407FEFDCF8BEC9C
:1006E0008EBD0DB407FEFDCF19C0289888ED8EBDD4
:1006F0000DB407FEFDCF1EBC0DB407FEFDCF289A3A
:100700000EB401FC0EC028988AED8EBD0DB407FE14
:10071000FDCF8BEC8EBD0DB407FEFDCF289A83E094
:100720000FC028988AED8EBD0DB407FEFDCF89EC71
:100730008EBD0DB407FEFDCF289A82E001C081E096
:1007400080930C06089528988AED8EBD0DB407FE9F
:10075000FDCF81ED8EBD0DB407FEFDCF289A10921E
:100760000C060895FC0128988AE78EBD0DB407FE9B
:10077000FDCF80E28EBD0DB407FEFDCF289A2898EC
:100780008AE78EBD0DB407FEFDCF1EBC0DB407FE7B
:10079000FDCF289A20E030E061E070E088E60DC0EF
:1007A00028988EBD0DB407FEFDCF1EBC0DB407FE0C
:1007B000FDCF289A0EB400FC0AC0AB01421B530BBC
:1007C0002150304069F7452B11F48FEF0895289898
:1007D0008AED8EBD0DB407FEFDCF81EC8EBD0DB44C
:1007E00007FEFDCF289A289882ED8EBD0DB407FE36
:1007F000FDCF80E68EBD0DB407FEFDCF289A289868
:100800008AEE8EBD0DB407FEFDCF84E08EBD0DB423
:1008100007FEFDCF289A88EE28988EBD0DB407FEFE
:10082000FDCF1EBC0DB407FEFDCF289A0EB402FE0C
:10083000F3CFCF010E94340328988AEC8EBD0DB40B
:1008400007FEFDCF80E28EBD0DB407FEFDCF289AD6
:10085000289882E88EBD0DB407FEFDCF81E08EBDE5
:100860000DB407FEFDCF289A80E008958F929F92E5
:10087000AF92BF92CF92DF92EF92FF920F931F93AE
:1008800006E5C02E03E0D02EC60161E070E00E94B4
:100890005D22C6010A9660E070E00E945D2214E1CC
:1008A000812E912C8C0C9D1CC40161E049E02AE151
:1008B00004E0B5E0EB2E0E943521AEEAAA2EA3E0BB
:1008C000BA2EC50161E04AE029E10E94352180E0AD
:1008D00090E0A0EFB2E48093F2039093F303A0932F
:1008E000F403B093F50380E090E4ACE9B5E48093C1
:1008F000F6039093F703A093F803B093F90382E310
:1009000090E09093FB038093FA0380E090E0A0E0F6
:10091000B0E48093FE039093FF03A0930004B09390
:100920000104C60140E050E065E773EC0E947122CB
:10093000C40140E050E06AE774E40E94FF1DC50175
:1009400040E050E86BEB75E40E94FF1D8AE094E004
:1009500066E170E04DE050E02CE030E007E110E0AF
:10096000FBE0EF2EF12CE8E1CE2ED12C0E942B1BC8
:100970008BE294E062E070E00E945B1B8BE694E007
:1009800066E070E00E941C1181E894E040E050E0D5
:1009900060E771E406E616E622EB31E40F2EF6E698
:1009A000CF2EF6E6DF2EFEE6EF2EF1E4FF2EF02D41
:1009B0000F2EFDEC8F2EFCEC9F2EFCE4AF2EFEE301
:1009C000BF2EF02D0E94971386EC92E09093640561
:1009D000809363051092650508E615E0C8010E9442
:1009E000762D80EE95E0B8010E94563582EF95E0B5
:1009F000B80143E655E00E94B6231F910F91FF9086
:100A0000EF90DF90CF90BF90AF909F908F90089520
:100A1000CF92DF92EF92FF920F931F93DF93CF93CA
:100A2000CDB7DEB76C970FB6F894DEBF0FBECDBF63
:100A30000E94F9396093390570933A0580933B051C
:100A400090933C0520911D0530911E0540911F0596
:100A50005091200528573C4E4F4F5F4F26173707C0
:100A600048075907A0F48BE294E00E94311C809162
:100A7000390590913A05A0913B05B0913C058093D2
:100A80001D0590931E05A0931F05B093200580912E
:100A9000210590912205A0912305B0912405805E47
:100AA000914BAF4FBF4F2091390530913A0540919E
:100AB0003B0550913C0582179307A407B507C0F486
:100AC0008BE294E00E94851B90931C0580931B058C
:100AD0008091390590913A05A0913B05B0913C0574
:100AE0008093210590932205A0932305B0932405BC
:100AF00080911705909118058330910509F4DEC0A7
:100B00008430910554F48130910551F18230910582
:100B10000CF0B1C0892BA1F067C38730910509F4AF
:100B2000FEC18830910524F4069709F05DC32DC3FA
:100B30008830910509F4B0C2099709F055C3FFC286
:100B40008AE094E00E94011788E695E00E94B433A1
:100B500080915D05882309F447C381E090E0B2C12C
:100B60008091B7026FE070E00E94263B8091B50251
:100B700060E070E00E94263B80913D0590913E052B
:100B8000A0913F05B09140058854944FAF4FBF4F9F
:100B90002091390530913A0540913B0550913C0533
:100BA00082179307A407B50740F460911B05709165
:100BB0001C058AE094E00E94C51788E695E00E9433
:100BC000B43380915D05882329F4109218051092A2
:100BD00017050AC080915E05882331F484E090E017
:100BE0009093620580936105809119050E94EC3C09
:100BF0000197C9F48091290590912A05A0912B05B0
:100C0000B0912C0584529A4FAF4FBF4F20913905B8
:100C100030913A0540913B0550913C05821793076E
:100C2000A407B50728F080914205882309F4DCC2A7
:100C30001092420582E090E090931805809317058A
:100C40008091B5026FE070E00E94263B8091B70270
:100C500060E070E00E94263B1092500510924F0514
:100C6000109252051092510510925C0510925B058E
:100C700081E090E04FC18091250590912605A091DB
:100C80002705B091280588519C4FAF4FBF4F209149
:100C9000390530913A0540913B0550913C0582174A
:100CA0009307A407B50708F09FC2609143057091B0
:100CB00044058AE094E00E941F1610C28091190535
:100CC0000E94EC3C019739F52091390530913A05A5
:100CD00040913B0550913C058091290590912A0552
:100CE000A0912B05B0912C0584529A4FAF4FBF4F66
:100CF00082179307A407B50770F487E090E09093FC
:100D00001805809317052093290530932A054093F1
:100D10002B0550932C052091390530913A054091CF
:100D20003B0550913C058091310590913205A09191
:100D30003305B091340588519C4FAF4FBF4F821798
:100D40009307A407B50788F4809153059091540543
:100D50000197909354058093530520933105309368
:100D60003205409333055093340560914F057091DF
:100D70005005409151055091520520911B0530912D
:100D80001C0500915305109154058AE094E00E94DF
:100D90003D1A20915F053091600522303105A1F1A7
:100DA000233031052CF42130310509F01DC209C072
:100DB0002330310509F44EC02430310509F014C246
:100DC00095C0109262051092610580EA9FE09093B1
:100DD0005405809353053093500520934F0530936D
:100DE00056052093550581E894E00E9428119093C0
:100DF00058058093570581E894E00E942411909350
:100E00005205809351056FC060914F057091500558
:100E10006150704081E894E00E944A116B017C01AE
:100E200060914F05709150056150704081E894E0E9
:100E30000E94B4118B019C0186E593E0B701A601E5
:100E40000E940C0F86E593E00E942C0D882309F484
:100E5000CBC15EC060915505709156052091570534
:100E600030915805C901880F991F01968617970779
:100E7000E4F061507040621B730B81E894E00E94C3
:100E80009A1290935A058093590510925C0588E652
:100E900095E00E94B43380915C05882309F4A4C1D5
:100EA00010925B0584E090E035C020914F053091B1
:100EB00050058091510590915205281739073CF053
:100EC00086E090E090931805809317058DC181E02E
:100ED00090E090935605809355052F5F3F4F3093D8
:100EE000500520934F0582E090E014C088E695E01D
:100EF0000E94B43380915B05882309F475C1809109
:100F00005505909156050196909356058093550589
:100F100083E090E09093600580935F0565C18091C8
:100F200019050E94EC3C019741F52091390530915B
:100F30003A0540913B0550913C05809129059091DF
:100F40002A05A0912B05B0912C0584529A4FAF4FE2
:100F5000BF4F82179307A407B50778F48091410526
:100F6000882341F4209335053093360540933705A7
:100F70005093380581E080934105809119050E94C6
:100F8000EC3C892BC9F5809141058823A9F120917A
:100F9000390530913A0540913B0550913C058091CF
:100FA000350590913605A0913705B0913805790146
:100FB0008A01E81AF90A0A0B1B0BD801C701E09253
:100FC0003505F09236050093370510933805845C9B
:100FD0009940A040B04030F488E090E0909318052C
:100FE00080931705109241052093290530932A0517
:100FF00040932B0550932C05809119050E94EC3CE1
:101000000197A9F580914105882389F1209139053F
:1010100030913A0540913B0550913C058091350552
:1010200090913605A0913705B09138058C53964FB5
:10103000AF4FBF4F82179307A407B507C0F489E0ED
:1010400090E0909318058093170520932D05309319
:101050002E0540932F0550933005109241052093A3
:10106000290530932A0540932B0550932C05609158
:101070004F057091500540915105509152052091B6
:101080001B0530911C0500915305109154058AE011
:1010900094E00E944F19A8C08091250590912605E3
:1010A000A0912705B091280588519C4FAF4FBF4FA5
:1010B0002091390530913A0540913B0550913C050E
:1010C00082179307A407B50708F08EC06091430507
:1010D000709144058AE094E00E948515809139055D
:1010E00090913A05A0913B05B0913C058093250570
:1010F00090932605A0932705B0932805809143057A
:101100009091440501979093440580934305892B62
:1011100009F06AC086E090E090934405809343050F
:1011200083E090E0909318058093170510922505B1
:1011300010922605109227051092280555C08AE0C6
:1011400094E00E94B9161092600510925F0580919C
:101150002D0590912E05A0912F05B091300588574F
:101160009C4EAF4FBF4F2091390530913A054091C9
:101170003B0550913C0582179307A407B507A0F5DE
:1011800010921805109217052FC060914F057091AD
:101190005005409151055091520520911B05309109
:1011A0001C0500915305109154058AE094E00E94BB
:1011B0006118809119050E94EC3C81309105A1F4E1
:1011C00090931805809317058091390590913A0501
:1011D000A0913B05B0913C058093290590932A0589
:1011E000A0932B05B0932C058BE694E00E94DE0FB4
:1011F000882309F498C18BE694E00E9469108BE67D
:1012000094E00E94B60F882309F4EAC18091170583
:1012100090911805019709F0E3C1E0901B05F0904B
:101220001C058E010F5F1F4FC80160E072E00E9435
:10123000F5438AE094E0B701A8010E944917C8016C
:101240000E9486448091390590913A05A0913B0512
:10125000B0913C0580933D0590933E05A0933F05DA
:10126000B09340058BE694E00E94BF0FBC0181E87B
:1012700094E00E94301135C08091170590911805B7
:10128000019709F0B4C1E0901B05F0901C058E0198
:10129000085F1F4FC8016BE072E00E94F5438AE0CF
:1012A00094E0B701A8010E944917C8010E94864432
:1012B0008091390590913A05A0913B05B0913C058C
:1012C00080933D0590933E05A0933F05B093400564
:1012D0008BE694E00E94BF0FBC0181E894E00E947D
:1012E0002C118BE694E00E949F0F17C18091170587
:1012F00090911805019709F081C1E0901B05F090CD
:101300001C058E01015F1F4FC80166E172E00E945B
:10131000F5438AE094E0B701A8010E944917C8018B
:101320000E9486448091390590913A05A0913B0531
:10133000B0913C0580933D0590933E05A0933F05F9
:10134000B09340058BE694E00E94BF0FAA2797FD5B
:10135000A095BA2FBC01CD010E94B747AB01BC01DB
:1013600081E894E00E948F13BCCFC0901705D09005
:10137000180511E0C116D10409F047C1E0901B0522
:10138000F0901C058E010A5E1F4FC80161E272E0F9
:101390000E94F5438AE094E0B701A8010E94491732
:1013A000C8010E9486448091390590913A05A09128
:1013B0003B05B0913C0580933D0590933E05A0937D
:1013C0003F05B0934005D0926205C09261058BE65F
:1013D00094E00E94C80F90934A05809349058BE6DC
:1013E00094E00E94BF0F90934C0580934B0595C0ED
:1013F0008091170590911805019709F00DC182E0C1
:1014000090E0909362058093610587C080911705F5
:10141000909118058330910519F487E090E00CC095
:101420008130910521F481E0809342055ACF0797DE
:1014300009F057CF88E090E0909318058093170546
:1014400050CF8BE694E00E94CC0F882309F4ECC0C7
:1014500020911705309118052130310509F0E4C0BD
:1014600083E090E0909362058093610530934E0590
:1014700020934D0552C08091170590911805019752
:1014800009F0D9C083E090E09093620580936105F4
:1014900082E090E02DC0809117059091180501978A
:1014A00009F0D0C083E090E09093620580936105DD
:1014B0001FC08091170590911805019709F0C9C0C8
:1014C00083E090E0909362058093610584E090E072
:1014D0000FC08091170590911805019709F0C0C0C1
:1014E00083E090E090936205809361058FEF9FEF1A
:1014F00090934E0580934D0510C0809117059091F3
:101500001805019751F483E090E090936205809371
:10151000610510924E0510924D0561E070E080E08B
:1015200090E00E942D3A80916105909162050397A9
:1015300009F09EC080914D0590914E058130910536
:10154000D9F1823091053CF42FEF8F3F920769F07B
:10155000892B29F18DC083309105C1F1833091052C
:1015600084F1049709F084C036C086E593E040E03A
:1015700050E060E070E08A019B010E940C0F86E55C
:1015800093E00E942C0D882309F472C0109262052A
:10159000109261058BE694E00E949F0F69C086E57A
:1015A00093E00E94910F8BE694E00E949F0F1092AF
:1015B0006205109261055CC086E593E00E94730F9E
:1015C00057C086E593E00E94540F52C086E593E031
:1015D0000E943E0F4DC086E593E00E94290F48C04F
:1015E0008BE694E00E94B00F882309F045CE8BE68D
:1015F00094E00E94B30F882309F078CE8BE694E044
:101600000E94AD0F882309F0B0CE8BE694E00E94D3
:10161000BC0F882309F0ECCE8BE694E00E94B90F52
:10162000882309F0F3CE0DCF8BE694E00E94CF0F14
:10163000882309F020CF8BE694E00E94D20F882304
:1016400009F029CF8BE694E00E94D50F882309F09A
:1016500030CF8BE694E00E94D80F882309F039CF71
:101660008BE694E00E94DB0F882309F456CF45CF28
:101670006C960FB6F894DEBF0FBECDBFCF91DF9151
:101680001F910F91FF90EF90DF90CF900895EF9210
:10169000FF920F931F9381E498E040E855E260E0E9
:1016A00070E00E94613F85E898E040E052EC61E024
:1016B00070E00E94613F0E94F9397B018C018AE051
:1016C00094E00E94341888E695E00E94B2038F3FB0
:1016D00031F481E498E062E372E00E94D642109215
:1016E0001805109217051092600510925F0582E0B0
:1016F00090E090931A058093190582E060E00E94C3
:10170000063C8091B50261E00E94063C8091B702E0
:1017100061E00E94063C8091B90261E00E94063CB3
:10172000C701AA2797FDA095BA2F80931D05909316
:101730001E05A0931F05B093200580932505909367
:101740002605A0932705B09328058093290590933B
:101750002A05A0932B05B0932C0580932D0590931B
:101760002E05A0932F05B0933005809345059093E7
:101770004605A0934705B0934805809321059093B3
:101780002205A0932305B0932405809331059093FF
:101790003205A0933305B093340580933D059093B3
:1017A0003E05A0933F05B093400510923505109279
:1017B000360510923705109238051092410586E0E3
:1017C00090E0909344058093430510925005109249
:1017D0004F05109252051092510582E891E09093C6
:1017E0005A058093590581E894E063E070E00E9417
:1017F0002C116091590570915A0581E894E00E947E
:10180000301110925E0510925D058AE094E040E28E
:1018100053E060E070E00E94C81468E775E080E083
:1018200090E00E942D3A8BE294E00E94311C68EC1B
:1018300070E080E090E00E942D3A8BE294E00E94FC
:10184000311C68EC70E080E090E00E942D3A8BE261
:1018500094E00E94311C68EC70E080E090E00E940F
:101860002D3A8BE294E00E94851B90931C05809397
:101870001B051F910F91FF90EF9008950F931F93F9
:10188000DF93CF93CDB7DEB764970FB6F894DEBF82
:101890000FBECDBF8C01FC018281882331F41482FC
:1018A000138281E080935D0582830E94F9399B0158
:1018B000AC0180910D0690910E06A0910F06B0919B
:1018C000100682179307A407B50708F0ACC0245D83
:1018D0003E4F4F4F5F4F20930D0630930E064093BF
:1018E0000F065093100680915F059091600584303B
:1018F000910581F480915B05882341F582EF95E0A5
:101900000E9430238150904209F08DC081E0809385
:101910005B0589C00397D1F480915C058823B1F4FD
:101920002091590530915A05442737FD4095542F91
:1019300082EF95E062E071ED0E94B4228150904206
:1019400009F071C081E080935C056DC080916105F4
:101950009091620581309105A9F4609149057091DB
:101960004A0520914B0530914C05442737FD4095A1
:10197000542F82EF95E00E94B4228150904209F0EA
:1019800052C00BC08230910569F482EF95E00E944D
:1019900030238150904209F046C08BE694E00E94CB
:1019A0009F0F3DC0049709F03EC0DE011196ECED9B
:1019B000F2E08AE001900D928150E1F7DE011B9682
:1019C000E2EDF2E08AE001900D928150E1F7F8013A
:1019D00083819481880F991FFE013196E80FF91FCA
:1019E0006081718122853385442737FD4095542FCE
:1019F00082EF95E00E94B4228150904231F4F801C8
:101A000083819481019694838383F80183819481F7
:101A1000059749F41482138281E080935E05109249
:101A200062051092610564960FB6F894DEBF0FBE92
:101A3000CDBFCF91DF911F910F910895FC0182815D
:101A4000882349F0128210925D0581E191E060E8FF
:101A500070E00E94162C0895FC01EA55FF4F80812A
:101A6000E65AF040882329F0E955FF4F8081811123
:101A700081E008952F923F924F925F926F927F92F2
:101A80008F929F92AF92BF92CF92DF92EF92FF928E
:101A90000F931F93CF93DF93EC017A018B010E9488
:101AA00077225B016C01C055DF4F688379838A839D
:101AB0009B83C05BD040C801B70120E030E040E02C
:101AC00050E00E941847882354F4C801B70120E071
:101AD00030E044EB53E40E948C467B018C01C8014A
:101AE000B701A60195010E948B465B016C0120E0C5
:101AF00030E040E050E00E94184787FD0BC00F2EF9
:101B0000F0E02F2EF0E03F2EF0E84F2EFFEB5F2E9F
:101B1000F02D0AC00F2EF0E02F2EF0E03F2EF0E85F
:101B20004F2EFFE35F2EF02DC601B50120E030E01F
:101B300040E050E00E948C4818161CF486017501A4
:101B400006C08601750117FB109517F9109560E026
:101B500070E084EB93E4A80197010E948B463B015F
:101B60004C01C801B701A40193010E9418478823C2
:101B700024F4C801B701905802C0C401B301A20106
:101B800091010E9497483B014C01C601B50120E03C
:101B900030E040E050E00E948C48181624F0D7FA5C
:101BA000D094D7F8D09410E0FE01E855FF4FC6015D
:101BB000B50120813181428153810E9418478823D9
:101BC0000CF411E0CA55DF4F1883C65AD0401123D8
:101BD00091F584E1C82ED12CCC0EDD1EC401B301D9
:101BE000905824EE38E34EE850E40E9497487B0179
:101BF0008C01CC55DF4F68817981882777FD8095EE
:101C0000982F0E94B7479B01AC01C801B7010E9401
:101C100097480E948447AB01BC01C6010E94F01D99
:101C20002897488159816A817B81C6010E94551E8F
:101C3000C6010E943922DF91CF911F910F91FF9031
:101C4000EF90DF90CF90BF90AF909F908F907F905C
:101C50006F905F904F903F902F9008952F923F92FA
:101C60004F925F926F927F928F929F92AF92BF92AC
:101C7000CF92DF92EF92FF920F931F93CF93DF9358
:101C8000EC017A018B010A960E9477229B01AC013C
:101C9000C455DF4F688379838A839B83CC5AD040B5
:101CA000C801B7010E948B465B016C0120E030E067
:101CB00040E050E00E94184787FD0BC00F2EF0E077
:101CC0002F2EF0E03F2EF0E84F2EFFEB5F2EF02D91
:101CD0000AC00F2EF0E02F2EF0E03F2EF0E84F2E3E
:101CE000FFE35F2EF02DC601B50120E030E040E0BB
:101CF00050E00E948C4818161CF48601750106C03D
:101D00008601750117FB109517F9109560E070E0DA
:101D100084EB93E4A80197010E948B463B014C01A0
:101D2000C801B701A40193010E941847882324F435
:101D3000C801B701905802C0C401B301A2019101CA
:101D40000E9497483B014C01C601B50120E030E0FC
:101D500040E050E00E948C48181624F0D7FAD09446
:101D6000D7F8D09410E0FE01E855FF4FC601B50149
:101D700020813181428153810E94184788230CF4CD
:101D800011E0C955DF4F1883C75AD040112389F598
:101D900098E5C92ED12CCC0EDD1EC401B30124EE72
:101DA00038E34EE850E40E9497487B018C01CC5503
:101DB000DF4F68817981882777FD8095982F0E9471
:101DC000B7479B01AC01C801B7010E9497480E9428
:101DD0008447AB01BC01C6010E94F01DFE01729157
:101DE000629152914291C6010E94551EC6010E9405
:101DF0003922DF91CF911F910F91FF90EF90DF90EB
:101E0000CF90BF90AF909F908F907F906F905F909A
:101E10004F903F902F900895AF92BF92CF92DF9254
:101E2000EF92FF920F931F935C016A017B01B9014E
:101E3000A8010E943A0DC501B701A6010E942E0E0D
:101E40001F910F91FF90EF90DF90CF90BF90AF90D8
:101E500008950F931F93FC018C01085A1F4FE05601
:101E6000FF4F4081518162817381C8010E94551EDC
:101E7000C8010E94D5211F910F9108950F931F93C0
:101E8000FC018C01085A1F4FE056FF4F40815181E1
:101E9000628173817058C8010E94551EC8010E945A
:101EA000D5211F910F910895EF92FF920F931F93E9
:101EB0008C010E94772224E1E22EF12CE00EF11E2B
:101EC00004561F4FF801408151816281738170581F
:101ED000C7010E94551EC7010E94D5211F910F9175
:101EE000FF90EF900895EF92FF920F931F938C0154
:101EF0000E94772234E1E32EF12CE00EF11E04560D
:101F00001F4FF8014081518162817381C7010E9496
:101F1000551EC7010E94D5211F910F91FF90EF9090
:101F200008950F931F938C0144960E947820C80156
:101F3000885A9F4F0E9478201F910F910895FC01AD
:101F40001186128614861386158616861786108AC1
:101F5000118A128A138A148A0895FC0181850895D2
:101F6000FC0182850895FC0184850895FC01838528
:101F70000895FC0185850895FC0187850895FC017D
:101F800063817481858196810E948447CB01089585
:101F9000FC01878190850895FC0180890895FC01EA
:101FA00081890895FC0182890895FC01838908953F
:101FB000FC0184890895FC018589089585E898E0ED
:101FC0000E94E83F20E0892B09F021E0822F08954C
:101FD000EF92FF920F931F93DF93CF93CDB7DEB7AE
:101FE000C058D0400FB6F894DEBF0FBECDBF1982E7
:101FF0001A821B821C82FE0135968CE7DF011D923E
:102000008A95E9F700E010E07E010894E11CF11CDC
:1020100085E898E00E94E83F892B41F461E070E098
:1020200080E090E00E942D3A1F5F0AC085E898E0AA
:102030000E941940F701E00FF11D80830F5F10E04F
:10204000802F90E0009719F4E0E0F0E008C08238BB
:1020500091051CF0E0E8F0E002C0FC013197EE0DC4
:10206000FF1D80818B3321F0153010F407FFD0CF96
:10207000CE0101960E947701C058DF4F0FB6F89449
:10208000DEBF0FBECDBFCF91DF911F910F91FF90AB
:10209000EF900895CF93DF93EC0185E898E00E94DC
:1020A0001940833421F488816AE070E003C088819C
:1020B00060E070E00E94263B04C085E898E00E9442
:1020C0001940CE010E94DE0F8823B9F7DF91CF912E
:1020D0000895CF93DF93EC0185E898E00E941940C2
:1020E0008A8361E070E080E090E00E942D3A888968
:1020F000882369F48989882351F48A89882339F4EB
:102100008B89882321F48C89882309F465C081E0B8
:102110008D8B188A198A1A8A1B8A1C8A8AC0CE015A
:102120000E944A1086C0CE010E94E80F6B837C8318
:102130008D839E8381E0898781E091ED98878F83ED
:1021400078C0CE010E94E80F6B837C838D839E83D1
:1021500089E091ED09C0CE010E94E80F6B837C837A
:102160008D839E8383E091ED98878F8381E08987BB
:1021700060C0CE010E94E80F6B837C838D839E83B9
:1021800081E08A8756C0CE010E94E80F6B837C8372
:102190008D839E8381E08C874CC0CE010E94E80F26
:1021A0006B837C838D839E8381E08B8742C081E03B
:1021B0008F873FC081E08D873CC081E0888B39C02C
:1021C00081E0898B36C081E08A8B33C081E08B8BC4
:1021D00030C081E08C8B2DC01D8A8A81893409F43E
:1021E000BACF8A3494F4843459F3853434F4813486
:1021F00009F499CF8334E9F4DACF863421F28634B6
:102200000CF4B7CF8834A9F4E1CF8535B1F2863527
:1022100044F48235F1F2833509F4BFCF803549F4B7
:10222000C9CF873509F48DCF87356CF28A3509F42B
:1022300076CFDF91CF910895FC01862F6083718363
:1022400061E00E94063C0895FC01868D978D0895FB
:10225000FC01808991890895FC01718B608B089540
:10226000DC01FC01B89620E030E080819181861786
:10227000970739F02F5F3F4F329627333105A9F783
:10228000089553967C936E93529755963C932E9354
:1022900054970895AF92BF92CF92DF92EF92FF9240
:1022A0000F931F93CF93DF938C01EB01FC01A0A050
:1022B000B1A0BE01882777FD8095982F0E94B7476F
:1022C0006B017C01F801668D778D882777FD8095FD
:1022D000982F0E94B74720E030E040E050E40E9491
:1022E0008B469B01AC01C701B6010E948C48882334
:1022F0002CF0E0E070E080E060E025C0CE01B501A8
:102300000E942849AA2797FDA095BA2FBC01CD01AC
:102310000E94B7477B018C01B501882777FD809526
:10232000982F0E94B7479B01AC0160E070E084EBFE
:1023300093E40E941C479B01AC01C801B7010E94B5
:102340009748E62F692F2E2F372F482F562FB90188
:10235000CA01DF91CF911F910F91FF90EF90DF9015
:10236000CF90BF90AF9008952F923F924F925F927F
:102370006F927F928F929F92AF92BF92CF92DF9295
:10238000EF92FF920F931F93CF93DF93EC014B01DA
:10239000B401882777FD8095982F0E94B7477B016D
:1023A0008C0120E030E040E050E00E941847882394
:1023B00029F4E0E070E084EB62ECA3C06E8D7F8DC9
:1023C000882777FD8095982F0E94B74720E030E05E
:1023D00040E85FE30E948B469B01AC01C801B70156
:1023E0000E941847882329F4E0E070E084EB62E45F
:1023F00088C064010894C108D10860E070E084E3FB
:1024000093E42AA13BA14CA15DA10E948B4620E050
:1024100030E040E05FE30E9497487B018C016E89C9
:102420007F89888D998D20E030E040E05FE30E9455
:1024300097489B01AC01C801B7010E948C467B0103
:102440008C013B014C0197FA909497F89094C40149
:10245000B30120E030E040E050E00E948C481816C4
:102460002CF484017301130124010EC0170128010B
:10247000C801B70120E030E040E050E00E948C4805
:10248000181614F08401730128A139A1C601B901FD
:102490000E942849A601481B590BCA01B9010E9494
:1024A0002849882777FD8095982F0E94B7475B01C0
:1024B0006C01C201B101A80197010E948C467B0109
:1024C0008C016EA17FA1882777FD8095982F0E94AF
:1024D000B74720E030E040E85FE30E948B469B0175
:1024E000AC01C801B7010E941C479B01AC01C601A9
:1024F000B5010E949748A40193010E948C46E62FE3
:10250000692F2E2F372F482F562FB901CA01DF917F
:10251000CF911F910F91FF90EF90DF90CF90BF90E0
:10252000AF909F908F907F906F905F904F903F9073
:102530002F900895DC01FB01EE0FFF1FE60FF71F40
:1025400054968D919C915597E80FF91FE733F1054B
:1025500014F0E6E3F0E0BF01F7FF02C060E070E0D6
:10256000FB017496EE0FFF1FEA0FFB1F8081918124
:1025700008956F927F928F929F92AF92BF92CF9267
:10258000DF92EF92FF920F931F93CF93DF93EC01B3
:10259000288139814A815B81CA01B9010E948C4638
:1025A0007B018C016C817D818E819F81A8019701C7
:1025B0000E941C470E94F0469B01AC010E948C4681
:1025C00023EA3CE445E652E40E9497483B014C0173
:1025D0006A8F7B8F8C8F9D8F688579858A859B8597
:1025E000A80197010E941C470E94F0469B01AC0184
:1025F0000E948C4623EA3CE445E652E40E94974858
:102600005B016C016E8B7F8B888F998F60E070E02F
:1026100084EB93E4A40193010E941C477B018C018D
:102620006C857D858E859F8520E030E040E85FE306
:102630000E948C469B01AC01C801B7010E949748DB
:1026400020E030E040E05FE30E948C460E94844737
:1026500079A368A3EC84FD840E851F85C401B301B2
:10266000A60195010E941847882314F464015301C0
:1026700060E070E080E89FE3A80197010E948B462C
:10268000A60195010E9497489B01AC0160E070E0B3
:1026900084E393E40E948B466AA37BA38CA39DA34F
:1026A0002E893F89488D598D0E941C477B018C01E2
:1026B0006C857D858E859F8520E030E040E85FE376
:1026C0000E948C469B01AC01C801B7010E9497484B
:1026D00020E030E040E05FE30E948C460E948447A7
:1026E0009B017FA36EA388A199A1AC01249FC00187
:1026F000259F900D349F900D112402969F8F8E8FF1
:10270000DF91CF911F910F91FF90EF90DF90CF90CD
:10271000BF90AF909F908F907F906F900895FC0135
:1027200040835183628373830E94B91208956F922C
:102730007F928F929F92AF92BF92CF92DF92EF9251
:10274000FF920F931F93DF93CF93CDB7DEB73C017A
:10275000FC01408351836283738304831583268342
:102760003783C086D186E286F38684869586A686E0
:10277000B78683E090E0918B808B84E691E0938B29
:10278000828BB89620E030E0808191818456914020
:1027900041F02F5F3F4F329627333105A9F72FEFD6
:1027A0003FEFF301358B248BC3010E94B91281E105
:1027B00091E0F30191A780A783E191E093A782A71D
:1027C00085E191E095A784A789E191E097A786A785
:1027D0008BE191E091AB80AB8DE191E093AB82AB6B
:1027E00081E291E095AB84AB83E291E097AB86AB5D
:1027F00085E291E091AF80AF89E291E093AF82AF43
:102800008BE291E095AF84AF8DE291E097AF86AF18
:1028100080E490E0680E791E80E391E0F3018193FB
:10282000919382E391E08193919384E391E081938A
:10283000919388E391E0819391938BE391E081936D
:1028400091938DE391E08193919381E491E0819361
:10285000919383E491E08193919385E491E0819356
:10286000919389E491E0819391938BE491E081933A
:1028700091938CE491E08193919381E591E0819330
:10288000919383E591E08193919384E591E0819325
:10289000919388E591E0819391938AE591E081930A
:1028A00091938DE591E0819391938FE591E08193F0
:1028B000919382E691E08193919384E691E08193F4
:1028C000919387E691E0819391938AE691E08193D9
:1028D00091938CE691E0819391938FE691E08193BF
:1028E000919382E791E08193919384E791E08193C2
:1028F000919387E791E0819391938AE791E08193A7
:1029000091938CE791E0819391938FE791E081938C
:10291000919382E891E08193919384E891E081938F
:10292000919387E891E0819391938AE891E0819374
:1029300091938CE891E0819391938FE891E081935A
:10294000919382E991E08193919384E991E081935D
:10295000919387E991E0819391938AE991E0819342
:1029600091938CE991E0819391938FE991E0918328
:102970008083CF91DF911F910F91FF90EF90DF90B7
:10298000CF90BF90AF909F908F907F906F90089561
:10299000FC01458F568F678F70A30895EF92FF92C9
:1029A0000F931F938C010E94F939E0E0D8015D96E6
:1029B0002D913D914D915C9190975996ED90FD90A0
:1029C0000D911C915C972E0D3F1D401F511F261726
:1029D00037074807590708F4E1E08E2F1F910F9140
:1029E000FF90EF900895EF92FF920F931F938C0149
:1029F0007B01FC016589F7018481681BC80141E006
:102A00000E94DE2AC801B7010E94E9421F910F917E
:102A1000FF90EF900895EF92FF920F931F938C0118
:102A20007B01FC016589F7018481681BC80140E0D6
:102A30000E94DE2AC801B7010E94E9421F910F914E
:102A4000FF90EF900895EF92FF920F931F938C01E8
:102A50007B01FC014789415060E00E94DE2AC801E9
:102A6000B7010E94E9421F910F91FF90EF900895E6
:102A7000EF92FF920F931F938C017B0160E040E087
:102A80000E94DE2AC801B7010E94E9421F910F91FE
:102A9000FF90EF900895EF92FF920F931F938C0198
:102AA0007B01FC0165897689F70184819581681B2A
:102AB000790B76956795C80141E00E94DE2AC8012E
:102AC000B7010E94E9421F910F91FF90EF90089586
:102AD000EF92FF920F931F938C017B01FC0165899C
:102AE0007689F70184819581681B790B76956795C6
:102AF000C80140E00E94DE2AC801B7010E94E942F5
:102B00001F910F91FF90EF900895AF92BF92CF92D7
:102B1000DF92EF92FF920F931F93DF93CF93CDB786
:102B2000DEB7AA970FB6F894DEBF0FBECDBF5C012B
:102B30008B010E94CE14882309F470C0C5010E9445
:102B40000D2B0A3011054CF16E010894C11CD11CEB
:102B5000C601B8014AE00E94284458E0E52EF12C55
:102B6000EC0EFD1EC701B6010E947B44C70165E45F
:102B700072E00E94A243BC018E01015F1F4FC80199
:102B80000E947044C501B8010E946815C8010E94E6
:102B90008644C7010E948C4437C04DE1E42EF12CDD
:102BA000EC0EFD1EC701B8014AE00E9428448E01C8
:102BB0000C5D1F4FC801B7010E947B44C80165E44A
:102BC00072E00E94A243BC0136E1C32ED12CCC0E90
:102BD000DD1EC6010E947044C8010E948C44C701DA
:102BE0000E948644F501658976898A8D9B8D681BD4
:102BF000790B769567956F5FC50140E00E94DE2AEC
:102C0000C501B6010E94E942C6010E9486440E94A5
:102C1000F939F501618F728F838F948FAA960FB661
:102C2000F894DEBF0FBECDBFCF91DF911F910F9102
:102C3000FF90EF90DF90CF90BF90AF900895AF924C
:102C4000BF92CF92DF92EF92FF920F931F93DF9389
:102C5000CF93CDB7DEB7AA970FB6F894DEBF0FBEFD
:102C6000CDBF5C018B010E94CE14882309F470C093
:102C7000C5010E940D2B0A3011054CF16E0108941C
:102C8000C11CD11CC601B8014AE00E942844B8E02A
:102C9000EB2EF12CEC0EFD1EC701B6010E947B4409
:102CA000C70161E572E00E94A243BC018E01015F91
:102CB0001F4FC8010E947044C501B8010E946815E9
:102CC000C8010E948644C7010E948C4437C0ADE110
:102CD000EA2EF12CEC0EFD1EC701B8014AE00E945D
:102CE00028448E010C5D1F4FC801B7010E947B4430
:102CF000C80161E572E00E94A243BC01F6E1CF2E5B
:102D0000D12CCC0EDD1EC6010E947044C8010E9469
:102D10008C44C7010E948644F501658976898A8DB5
:102D20009B8D681B790B769567956F5FC50140E0B9
:102D30000E94DE2AC501B6010E94E942C6010E9436
:102D400086440E94F939F501618F728F838F948FC9
:102D5000AA960FB6F894DEBF0FBECDBFCF91DF911C
:102D60001F910F91FF90EF90DF90CF90BF90AF90A9
:102D70000895EF92FF920F931F93DF93CF93CDB7F8
:102D8000DEB72E970FB6F894DEBF0FBECDBF7C0125
:102D90000E94CE14882341F1C7010E940D2B8E01A1
:102DA0000F5F1F4FC8016CE572E00E94F543C70139
:102DB000B8010E946815C8010E9486448E01085F10
:102DC0001F4FC80169E672E00E94F543C701B801D0
:102DD0000E944B15C8010E9486440E94F939F701F0
:102DE000618F728F838F948F2E960FB6F894DEBF0B
:102DF0000FBECDBFCF91DF911F910F91FF90EF904C
:102E00000895EF92FF920F931F93DF93CF93CDB767
:102E1000DEB72E970FB6F894DEBF0FBECDBF7C0194
:102E20000E94CE14882341F1C7010E940D2B8E0110
:102E30000F5F1F4FC80162E872E00E94F543C701AF
:102E4000B8010E946815C8010E9486448E01085F7F
:102E50001F4FC8016AE872E00E94F543C701B8013C
:102E60000E944B15C8010E9486440E94F939F7015F
:102E7000618F728F838F948F2E960FB6F894DEBF7A
:102E80000FBECDBFCF91DF911F910F91FF90EF90BB
:102E900008958F929F92AF92BF92CF92DF92EF925E
:102EA000FF920F931F93DF93CF93CDB7DEB7A39716
:102EB0000FB6F894DEBF0FBECDBF5C017B014A01A7
:102EC0000E940D2B8E010F5F1F4FC80165E972E054
:102ED0000E94F543C501B8010E943815C8010E943F
:102EE000864408E0C02ED12CCC0EDD1EC601B701F1
:102EF0004AE00E9428441FE0E12EF12CEC0EFD1E5A
:102F0000C701B6010E947B44C7016BE972E00E94D1
:102F1000A243BC018E010A5E1F4FC8010E9470448B
:102F2000C501B8010E940B15C8010E948644C70163
:102F30000E948C44C6010E9486448E01035E1F4F8E
:102F4000C801B4010E947044C501B8010E944B152C
:102F5000C8010E9486440E94F939F501618F728F81
:102F6000838F948FA3960FB6F894DEBF0FBECDBFAC
:102F7000CF91DF911F910F91FF90EF90DF90CF9055
:102F8000BF90AF909F908F900895AF92BF92CF92D5
:102F9000DF92EF92FF920F931F93DF93CF93CDB702
:102FA000DEB76C970FB6F894DEBF0FBECDBF5C01E5
:102FB0007B010E94CE14882309F445C0C5010E94FC
:102FC0000D2B8E010F5F1F4FC80165E972E00E9453
:102FD000F543C501B8010E943815C8010E94864416
:102FE00098E0C92ED12CCC0EDD1EC601B7014AE0F7
:102FF0000E9428448FE0E82EF12CEC0EFD1EC70144
:10300000B6010E947B44C7016BE972E00E94A243B3
:10301000BC018E010A5E1F4FC8010E947044C501A9
:10302000B8010E940B15C8010E948644C7010E9486
:103030008C44C6010E9486440E94F939F501618FD3
:10304000728F838F948F6C960FB6F894DEBF0FBE8D
:10305000CDBFCF91DF911F910F91FF90EF90DF9047
:10306000CF90BF90AF900895EF92FF920F931F9370
:10307000DF93CF93CDB7DEB727970FB6F894DEBFB7
:103080000FBECDBF7C010E940D2B8E010F5F1F4F25
:10309000C8016CE572E00E94F543C701B8010E94C7
:1030A0006815C8010E94864427960FB6F894DEBFC3
:1030B0000FBECDBFCF91DF911F910F91FF90EF9089
:1030C00008952F923F924F925F926F927F928F92CC
:1030D0009F92AF92BF92CF92DF92EF92FF920F93A7
:1030E0001F93DF93CF93CDB7DEB7CD54D0400FB64B
:1030F000F894DEBF0FBECDBF4C017B013A01290120
:1031000018010E94CE14882309F4AFC0C4010E94A4
:103110000D2B8E010F5F1F4FC8016DE972E00E94F9
:10312000F543C401B8010E943815C8010E948644C5
:10313000E8E0AE2EB12CAC0EBD1EC501B7014AE0D1
:103140000E9428447FE0C72ED12CCC0EDD1EC60184
:10315000B5010E947B44C60162EA72E00E94A2436C
:103160008C0166E1E62EF12CEC0EFD1EC701B301C9
:103170004AE00E942844C801B7010E94BE43BC0136
:103180008E01035E1F4FC8010E947044C401B80144
:103190000E942315C8010E948644C7010E948644EC
:1031A000C6010E948C44C5010E94864454E2C52E8B
:1031B000D12CCC0EDD1EC601B2014AE00E9428448B
:1031C0004BE2E42EF12CEC0EFD1EC701B6010E946D
:1031D0007B44C7016BE972E00E94A243BC018E01EF
:1031E0000E5C1F4FC8010E947044C401B8010E94C8
:1031F0000B15C8010E948644C7010E948C44C60179
:103200000E94864439E3C32ED12CCC0EDD1EC601AC
:10321000B1014AE00E94284420E4E22EF12CEC0E99
:10322000FD1EC701B6010E947B44C70164EA72E03B
:103230000E94A243BC018E01095B1F4FC8010E947E
:103240007044C401B8010E94F314C8010E9486446E
:10325000C7010E948C44C6010E9486440E94F9392D
:10326000F401618F728F838F948FC35BDF4F0FB632
:10327000F894DEBF0FBECDBFCF91DF911F910F91AC
:10328000FF90EF90DF90CF90BF90AF909F908F9086
:103290007F906F905F904F903F902F9008952F9266
:1032A0003F924F925F926F927F928F929F92AF92D6
:1032B000BF92CF92DF92EF92FF920F931F93DF9313
:1032C000CF93CDB7DEB7CD54D0400FB6F894DEBF64
:1032D0000FBECDBF4C017B013A01290118010E94AC
:1032E000CE14882309F4AFC0C4010E940D2B8E01B7
:1032F0000F5F1F4FC80166EA72E00E94F543C401E8
:10330000B8010E943815C8010E94864428E0A22E08
:10331000B12CAC0EBD1EC501B7014AE00E94284485
:103320009FE0C92ED12CCC0EDD1EC601B5010E9436
:103330007B44C60162EA72E00E94A2438C0186E1EE
:10334000E82EF12CEC0EFD1EC701B3014AE00E94ED
:103350002844C801B7010E94BE43BC018E01035E30
:103360001F4FC8010E947044C401B8010E94231578
:10337000C8010E948644C7010E948644C6010E947B
:103380008C44C5010E94864414E2C12ED12CCC0E7F
:10339000DD1EC601B2014AE00E942844BBE2EB2ECA
:1033A000F12CEC0EFD1EC701B6010E947B44C70143
:1033B0006BE972E00E94A243BC018E010E5C1F4FBC
:1033C000C8010E947044C401B8010E940B15C801D5
:1033D0000E948644C7010E948C44C6010E94864414
:1033E000A9E3CA2ED12CCC0EDD1EC601B1014AE0E4
:1033F0000E942844F0E4EF2EF12CEC0EFD1EC701D4
:10340000B6010E947B44C70164EA72E00E94A243B5
:10341000BC018E01095B1F4FC8010E947044C401AA
:10342000B8010E94F314C8010E948644C7010E949B
:103430008C44C6010E9486440E94F939F401618FD0
:10344000728F838F948FC35BDF4F0FB6F894DEBF0C
:103450000FBECDBFCF91DF911F910F91FF90EF90E5
:10346000DF90CF90BF90AF909F908F907F906F90A4
:103470005F904F903F902F9008952F923F924F92E0
:103480005F926F927F928F929F92AF92BF92CF92F4
:10349000DF92EF92FF920F931F93DF93CF93CDB7FD
:1034A000DEB7CD54D0400FB6F894DEBF0FBECDBF0F
:1034B0004C017B013A01290118010E94CE14882396
:1034C00009F4AFC0C4010E940D2B8E010F5F1F4F86
:1034D000C8016DEA72E00E94F543C401B8010E9480
:1034E0003815C8010E948644F8E0AF2EB12CAC0E0E
:1034F000BD1EC501B7014AE00E942844EFE0CE2E70
:10350000D12CCC0EDD1EC601B5010E947B44C60144
:1035100062EA72E00E94A2438C0176E1E72EF12C70
:10352000EC0EFD1EC701B3014AE00E942844C80109
:10353000B7010E94BE43BC018E01035E1F4FC8014C
:103540000E947044C401B8010E942315C8010E9462
:103550008644C7010E948644C6010E948C44C5016E
:103560000E94864464E2C62ED12CCC0EDD1EC6011C
:10357000B2014AE00E9428445BE2E52EF12CEC0EF9
:10358000FD1EC701B6010E947B44C7016BE972E0D2
:103590000E94A243BC018E010E5C1F4FC8010E9415
:1035A0007044C401B8010E940B15C8010E948644F2
:1035B000C7010E948C44C6010E94864449E3C42E80
:1035C000D12CCC0EDD1EC601B1014AE00E94284478
:1035D00030E4E32EF12CEC0EFD1EC701B6010E9473
:1035E0007B44C70164EA72E00E94A243BC018E01E1
:1035F000095B1F4FC8010E947044C401B8010E94BA
:10360000F314C8010E948644C7010E948C44C6017D
:103610000E9486440E94F939F401618F728F838F72
:10362000948FC35BDF4F0FB6F894DEBF0FBECDBFE4
:10363000CF91DF911F910F91FF90EF90DF90CF908E
:10364000BF90AF909F908F907F906F905F904F90C2
:103650003F902F900895AF92BF92CF92EF920F9329
:103660005C010E94CB2B8AEE92E0F501918380836E
:1036700080E190E0968B858B82E090E0908F878B45
:1036800084EF91E0A0E0B0E0858F968FA78FB0A384
:103690000E94F939F501618F728F838F948FC50174
:1036A0006589478920E00E94152B0F91EF90CF90FC
:1036B000BF90AF900895CF93DF93EC017983688337
:1036C00083E393E3A3E5B0E48A839B83AC83BD8368
:1036D00086E696E6A6E8B0E48E839F83A887B9873E
:1036E000FE0180E090E020E030E040E050E0228702
:1036F000338744875587019634968C309105B9F706
:103700001BAE1AAEDF91CF9108956F927F928F9288
:103710009F92AF92BF92CF92DF92EF92FF920F9360
:103720001F93CF93DF93EC01ECACFDAC0EAD1FAD5E
:103730006E807F8088849984C801B701A4019301B9
:103740000E948C4888231CF064E670E031C0AA8097
:10375000BB80CC80DD80C801B701A60195010E9425
:10376000184718161CF060E070E022C0C801B701CD
:10377000A60195010E948B467B018C01C401B30117
:10378000A60195010E948B469B01AC01C801B701BF
:103790000E941C4720E030E048EC52E40E94974829
:1037A00020E030E040E05FE30E948C460E948447C6
:1037B000CB01DF91CF911F910F91FF90EF90DF90A0
:1037C000CF90BF90AF909F908F907F906F90089513
:1037D000AF92BF92CF92DF92EF92FF920F931F931F
:1037E000CF93DF93FC01C2ACD3AC5C010F2EF0E0B1
:1037F000EF2EF0E0FF2EF0E00F2FF0E01F2FF02D66
:10380000C0E0D0E00CC0C801B701F50126813781C6
:10381000408551850E948C467B018C01219684E075
:1038200090E0A80EB91ECC16DD066CF70894C11CFA
:10383000D11CB601882777FD8095982F0E94B74745
:103840009B01AC01C801B7010E941C47DF91CF91D9
:103850001F910F91FF90EF90DF90CF90BF90AF90AE
:1038600008950F931F93CF93DF93EC0188810E94FB
:10387000F23A0AAD1BAD000F111F000F111F0C0F04
:103880001D1FAA2797FDA095BA2FBC01CD010E944C
:10389000B74720E030E040EA50E40E94974820E03B
:1038A00030EC4FE754E40E941C47F80162877387AD
:1038B00084879587CE010E94E81B6CAF7DAF8EAFE9
:1038C0009FAF8AAD9BAD8B30910524F401969BAFE1
:1038D0008AAF02C01BAE1AAEDF91CF911F910F913C
:1038E00008956F927F928F929F92AF92BF92CF92E4
:1038F000DF92EF92FF920F931F93CF93DF93EC0130
:10390000AF84B888C988DA888B859C85AD85BE85EB
:10391000A81AB90ACA0ADB0A2B893C894D895E8933
:10392000CA01B9010E9497487B018C012B8D3C8D07
:103930004D8D5E8DCA01B9010E948C469B01AC0180
:10394000C801B7010E941C470E9484479B01AC013B
:10395000A114B104C104D104B9F462307105810528
:1039600091050CF085C01BA21CA21DA21EA280E026
:1039700090E0A0E0B0E08B8B9C8BAD8BBE8B1BAA44
:103980001CAA1DAA1EAA0BC1EBA8FCA80DA91EA962
:103990001A141B041C041D0444F51E141F041006F5
:1039A000110674F46A157B058C059D05B4F5CD5B95
:1039B000DF4F8881C354D040882309F059C02DC0FF
:1039C000E114F1040105110509F452C06A157B05E3
:1039D0008C059D050CF04CC0CD5BDF4F8881C35436
:1039E000D040813009F044C038C01E141F041006B6
:1039F0001106DCF488279927DC018A199B09AC0998
:103A0000BD09281739074A075B073CF4CD5BDF4F38
:103A10008881C354D040813059F588279927DC012B
:103A2000821B930BA40BB50B1FC0E114F10401051D
:103A30001105F1F088279927DC018A199B09AC0947
:103A4000BD09281739074A075B0794F4CD5BDF4FA0
:103A50008881C354D040882359F488279927DC01F2
:103A60008E199F09A00BB10B8BAB9CABADABBEAB62
:103A70006BA87CA88DA89EA8611471048104910490
:103A8000A9F48FA998ADA9ADBAAD8BAF9CAFADAF7E
:103A9000BEAFFE01ED5BFF4F10821A141B041C0425
:103AA0001D040CF049C081E0808346C0ABACBCACC7
:103AB000CDACDEACC601B50120E030E040E050EC1A
:103AC0000E9497487B018C01C401B3010E94B74753
:103AD00020E030E040E850E40E94974820E030E0E9
:103AE00040E85FE30E948C469B01AC01C801B7012E
:103AF0000E941C479B01AC01C601B5010E948C4687
:103B00007B018C016BAF7CAF8DAF9EAFEF96A88031
:103B1000B980CA80DB80EF979501A6010E948C488E
:103B2000181624F4D801C70157016D01C501D6014B
:103B30008BAF9CAFADAFBEAF8BA99CA9ADA9BEA901
:103B40000196A11DB11D8BAB9CABADABBEAB6BADFC
:103B50007CAD8DAD9EAD0E9489476BA37CA38DA3E8
:103B60009EA360E074E284E799E42BAD3CAD4DADDB
:103B70005EAD0E941C479B01AC016B8B7C8B8D8BD7
:103B80009E8BCD5BDF4F8881C354D040882339F4AE
:103B9000DA01C901B0588B8B9C8BAD8BBE8BDF914A
:103BA000CF911F910F91FF90EF90DF90CF90BF903A
:103BB000AF909F908F907F906F900895FC018785C4
:103BC0009089A189B28984179507A607B70739F0AC
:103BD0004787508B618B728BCF010E94711C0895B7
:103BE000FC01DB01CA014385548565857685480F54
:103BF000591F6A1F7B1FCF010E94DE1D0895EF929F
:103C0000FF920F931F93CF93DF93EC017A018B0107
:103C10006F89788D898D9A8DA80197010E94184728
:103C20008823E1F1EF8AF88E098F1A8FEF9660E012
:103C300074E284E799E4A80197010E941C47688315
:103C400079838A839B83EF978BA99CA9ADA9BEA991
:103C5000181619061A061B060CF52B893C894D8986
:103C60005E89CA01B9010E9497487B018C012B8DA6
:103C70003C8D4D8D5E8DCA01B9010E948C469B0121
:103C8000AC01C801B7010E941C470E9484476BAB7E
:103C90007CAB8DAB9EABCE010E94711CDF91CF91AE
:103CA0001F910F91FF90EF9008954F925F926F9246
:103CB0007F928F929F92AF92BF92CF92DF92EF92BC
:103CC000FF920F931F93CF93DF932C017A018B0107
:103CD000CB01BA01F20123893489458956890E94B2
:103CE0001847882309F455C0F201A788B08CC18C0D
:103CF000D28C3501460197FA909497F89094C801B8
:103D0000B701A40193010E94184788231CF4840181
:103D100073010AC0C801B701A60195010E948C4831
:103D2000181614F486017501C801B70120E030E0CF
:103D300040E050E00E941847882331F4F20113A2BA
:103D400014A215A216A220C060E074E284E799E4F0
:103D5000A80197010E941C479F770E948947F201A2
:103D600063A374A385A396A3E201CD5BDF4F188202
:103D7000C801B70120E030E040E050E00E948C48EC
:103D8000181614F481E08883F201E38AF48A058B23
:103D9000168BDF91CF911F910F91FF90EF90DF90E5
:103DA000CF90BF90AF909F908F907F906F905F90DB
:103DB0004F900895DC0112968C911297833001F197
:103DC000843040F4813089F0ED91FC91119782307C
:103DD00098F407C0863011F1883049F1843079F5C4
:103DE00016C00480F581E02D1FC0ED91FC91119764
:103DF0000680F781E02D18C00084F185E02D14C005
:103E0000ED91FC9111970284F385E02D0DC0ED91A9
:103E1000FC9111970484F585E02D06C0ED91FC918D
:103E200011970684F785E02DCD0119950895ED9140
:103E3000FC9111970088F189E02DCD011995089525
:103E4000CF93DF93EC016B897C898D899E8920E07B
:103E500030E040E050E00E948C4818161CF4EFA5BA
:103E6000F8A902C0E9A9FAA91995DF91CF9108959F
:103E7000DC0170E06370707061307105A9F0623030
:103E800071051CF4672B41F0089562307105A1F0B3
:103E90006330710501F518C0ED91FC911197019007
:103EA000F081E02D62E00EC0ED91FC911197019040
:103EB000F081E02D63E006C0ED91FC910190F0816E
:103EC000E02D61E019950895ED91FC910190F0814C
:103ED000E02D60E019950895DC01862F63E00E94D3
:103EE0001C49913071F0913018F09230E9F413C010
:103EF000ED91FC9111970190F081E02DCD0164E0EE
:103F000008C0ED91FC9111970190F081E02DCD0159
:103F100061E019950895ED91FC9111970190F08160
:103F2000E02DCD0162E019950895DC0170E0637029
:103F3000707061307105A9F0623071051CF4672B57
:103F400041F0089562307105A1F06330710501F50B
:103F500018C0ED91FC9111970190F081E02D65E082
:103F60000EC0ED91FC9111970190F081E02D66E07B
:103F700006C0ED91FC910190F081E02D6AE0199569
:103F80000895ED91FC910190F081E02D69E0199583
:103F90000895DC01862F66E00E941C49923009F1E9
:103FA000933030F4992359F0913009F03FC010C09C
:103FB000943049F19430F0F09530C1F52EC0ED9178
:103FC000FC9111970190F081E02DCD0164E023C0B8
:103FD000ED91FC9111970190F081E02DCD0165E00C
:103FE0001AC0ED91FC9111970190F081E02DCD0167
:103FF00061E011C0ED91FC9111970190F081E02DED
:10400000CD0163E008C0ED91FC9111970190F08122
:10401000E02DCD0162E019950895ED91FC91119785
:104020000190F081E02DCD0166E019950895DC0145
:1040300070E0677070706330710591F164307105E4
:104040004CF461307105E1F0623071050CF5672BBD
:1040500079F008956530710599F16530710544F185
:1040600066307105A9F16730710509F040C038C0AC
:10407000ED91FC9111970190F081E02D61E02EC04F
:10408000ED91FC9111970190F081E02D65E026C043
:10409000ED91FC9111970190F081E02D64E01EC03C
:1040A000ED91FC9111970190F081E02D66E016C032
:1040B000ED91FC9111970190F081E02D62E00EC02E
:1040C000ED91FC9111970190F081E02D6AE006C01E
:1040D000ED91FC910190F081E02D68E01995089533
:1040E000ED91FC910190F081E02D69E01995089522
:1040F000AF92BF92CF92DF92EF92FF920F931F93F6
:10410000CF93DF93EC01AB88BC88CD88DE88C601F5
:10411000B50120E030E040E050E00E9418478823DD
:10412000B9F1C601B501A60195010E9497487B012E
:104130008C012B8D3C8D4D8D5E8DCA01B9010E9485
:104140008C469B01AC01C801B7010E941C470E942C
:1041500084477B018C010894E11CF11C011D111D99
:10416000C601B50120E030E040E050E00E948C48FC
:10417000181624F4CE01B801A70108C0442755271A
:10418000BA014E195F09600B710BCE010E94F01D40
:10419000DF91CF911F910F91FF90EF90DF90CF9023
:1041A000BF90AF900895CF92DF92EF92FF920F935E
:1041B0001F93CF93DF93FC012281243029F0283014
:1041C00019F092E0D92E02C084E0D82E8F01C0E011
:1041D000D0E0E62EFF24CC24C394F8012381C7014C
:1041E0000C2E02C0959587950A94E2F7678180FDB1
:1041F0006C25822F0E94B93C21960F5F1F4FCD1571
:1042000060F3DF91CF911F910F91FF90EF90DF90BE
:10421000CF900895CF93DF93EC018A81882311F129
:104220008B8161E00E94063C8C8161E00E94063C2B
:104230008A81843011F0883041F48D8161E00E94E0
:10424000063C8E8161E00E94063C9EA59F3F51F096
:104250006DA581E06827892F0E94B93C8EA561E099
:104260000E94063CDF91CF9108956F927F928F92CA
:104270009F92AF92BF92CF92DF92EF920F93FC0189
:1042800082EF92E091838083628313861486158681
:1042900016861786108A118A128A0F2EF0E06F2E6A
:1042A000F0E07F2EF0E08F2EF0E09F2EF02D638A5D
:1042B000748A858A968A0F2EF0E0AF2EF0E0BF2E2A
:1042C000F0E8CF2EFFE3DF2EF02DA78AB08EC18E4F
:1042D000D28EA38EB48EC58ED68EA78EB0A2C1A26A
:1042E000D2A213A214A215A216A281E090E094A774
:1042F00083A78FEF86A717A210A611A612A6438345
:1043000024830583E68213AA14AA15AA16AA67AA0B
:1043100070AE81AE92AE63AE74AE85AE96AEFF96D1
:10432000A192B192C192D1921082E354F0401782CF
:10433000108611861286CF010E940A210F91EF90FC
:10434000DF90CF90BF90AF909F908F907F906F90B5
:104350000895CF93DF93EC01E881F9810190F0811A
:10436000E02DCD5BDF4F8881C354D040882311F40A
:1043700061E001C063E0CE0119958BA59CA50E9468
:10438000863AE881F9810190F081E02DCD5BDF4F25
:104390008881C354D040882311F460E001C062E0FA
:1043A000CE011995DF91CF910895EF92FF920F936F
:1043B0001F93CF93DF93EC018BA19CA1ADA1BEA174
:1043C0000097A105B10509F44CC00E94073A7B0192
:1043D0008C012FA138A549A55AA58BA19CA1ADA1FF
:1043E000BEA1820F931FA41FB51F82179307A407B6
:1043F000B50730F0E816F9060A071B0758F405C0A0
:10440000E816F9060A071B0760F1E216F30604072F
:10441000150738F5CD5BDF4F8881C354D0402B851D
:104420003C854D855E85813029F42F5F3F4F4F4F8E
:104430005F4F04C021503040404050402B873C87A4
:104440004D875E87E881F9816B8567700280F38113
:10445000E02DCE011995EFA2F8A609A71AA781E0D1
:1044600001C080E0DF91CF911F910F91FF90EF90FD
:104470000895CF93DF93FC012785308941895289C4
:1044800083859485A585B685281739074A075B0774
:1044900011F480E00FC0EF01CD5BDF4F821793076F
:1044A000A407B5071CF481E0888301C01882CF01FE
:1044B0000E94D521DF91CF910895FC017183608323
:1044C0008BE09DE2A4EBBEE382839383A483B58358
:1044D00080E090E0A0E0B0E086839783A087B1877A
:1044E0000895FC0146835783608771870895EF9292
:1044F000FF920F931F938C01FC0180810E94F23A7E
:10450000AA2797FDA095BA2FBC01CD010E94B747FD
:10451000F80122813381448155810E949748F80136
:1045200026813781408551850E948C467B018C0114
:1045300020E030E040E050E00E941847882354F427
:10454000C801B70120E030E044EB53E40E948C4600
:104550007B018C01B701C8011F910F91FF90EF9073
:104560000895FC0182850895AF92BF92CF92DF92A9
:10457000EF92FF920F931F93DF93CF93CDB7DEB7E8
:104580002E970FB6F894DEBF0FBECDBF5B0160EC77
:10459000698363E36A83FCE0EF2EF12C012D112D7A
:1045A000EB82FC820D831E83CC24DD24AF82B8868F
:1045B000C986DA862B873C874D875E8760E171E983
:1045C000AE014F5F5F4F20E030E08E010D5F1F4F67
:1045D0000E9416258C0180E20130180731F061E05D
:1045E00070E080E090E00E942D3AC8012E960FB650
:1045F000F894DEBF0FBECDBFCF91DF911F910F9119
:10460000FF90EF90DF90CF90BF90AF9008950F9301
:104610001F93DF93CF930F920F92CDB7DEB78B012D
:1046200020E8298321E02A8366E171E9AE014F5F2A
:104630005F4F20E030E00E9416258C0180E20130BF
:10464000180731F061E070E080E090E00E942D3AC0
:10465000C8010F900F90CF91DF911F910F91089596
:104660006FE071E940E020E030E00E94F827089513
:104670007F928F929F92AF92BF92CF92DF92EF92F2
:10468000FF920F931F93DF93CF93CDB7DEB72A9797
:104690000FB6F894DEBF0FBECDBF7C01962E842EE0
:1046A000722EFC01A485B5858285882311F019ED51
:1046B00048C0ED91FC9111970190F081E02DCD0162
:1046C00060E019956C01009711F416ED3AC0FC01F9
:1046D000A080B180A114B10411F417ED32C08EE0B6
:1046E00090E0E80EF91EF601F182E08282EF9FEF82
:1046F000E80EF91EF7018485958560E040E02AE028
:1047000030E08E010F5F1F4F0E942035182FF601F9
:10471000B182A082882339F061E070E080E090E00F
:104720000E942D3A0EC089859A85895A944011F0CD
:1047300011ED07C0C701692D482D272D0E949F2824
:10474000182F812F2A960FB6F894DEBF0FBECDBF6B
:10475000CF91DF911F910F91FF90EF90DF90CF905D
:10476000BF90AF909F908F907F9008950F931F936D
:104770008C010E94C92388E093E0F8019183808333
:104780001F910F910895FB0184E08283089508959D
:104790000895CF93DF93FC0186E193E091838083BA
:1047A00012828FEF9FEF9483838316821582508746
:1047B00047831286138675876487168698E09787E5
:1047C0008CE3808B118A928B138A148A958B168ABC
:1047D000178A908F118E61157105B1F0EB01CA5ADD
:1047E000DF4FA0E0B0E088819981892B41F49B964E
:1047F000AA0FBB1FA60FB71FED93FC9305C0119620
:104800002296A031B10579F7DF91CF910895CF932A
:10481000DF93EC01DB0140E013968C91139790E05D
:10482000837090708330910511F493E00AC0029771
:1048300039F412968C91129787FF02C091E001C063
:1048400092E0292F30E0F901EE0FFF1FE20FF31F76
:10485000EC0FFD1F12968C9112978F70868714961D
:104860008C9114978787108A933011F09FE001C0D4
:1048700090E0F901EE0FFF1FE20FF31FEC0FFD1F99
:10488000990F990F80898370892B808B4F5F1796C2
:10489000433011F6DF91CF9108950F931F938C0150
:1048A000DC011C96ED91FC911D97A081B1811496BD
:1048B0002D913C911597CF01F8016285F901199569
:1048C00081E0D80112968C93129717960D90BC91A7
:1048D000A02DED91FC9111970190F081E02DCD017B
:1048E000B8011995F8011286168215828FEF9FEF95
:1048F0009483838380E01F910F910895CF93DF937A
:10490000EC018A81843019F1853030F4823049F02D
:10491000833009F03FC010C0853021F18630D1F5D9
:104920002CC0AF81B8851097A9F1ED91FC9111973A
:104930000280F381E02D2BC0AF81B885109751F133
:10494000ED91FC9111970480F581E02D20C0AF819D
:10495000B8851097F9F0ED91FC9111970680F781D9
:10496000E02D15C0AF81B8851097A1F0ED91FC91B5
:1049700011970084F185E02D0AC0AF81B8851097AA
:1049800049F0ED91FC9111970284F385E02DCD0162
:10499000BE011995DF91CF910895FC01818588238F
:1049A00019F0CF010E947E2408950F931F93DF9387
:1049B000CF93CDB7DEB72A970FB6F894DEBF0FBE00
:1049C000CDBFDC01FE0133968F01CE010B96119213
:1049D000E817F907E1F788E090E09A8389831C964D
:1049E0008D919C911D971A966C911A9757964C91A0
:1049F0009E012F5F3F4F0E94B4318F3F19F420E09A
:104A000030E408C061E070E080E090E00E942D3A60
:104A100022E030E2C9012A960FB6F894DEBF0FBE3D
:104A2000CDBFCF91DF911F910F9108952F923F92AB
:104A30004F925F926F927F928F929F92AF92BF92AE
:104A4000CF92DF92EF92FF920F931F93DF93CF935A
:104A5000CDB7DEB7C756D0400FB6F894DEBF0FBE55
:104A6000CDBF1C01B62EA72EA4965FAF4EAFA49764
:104A7000A901A6961FAF0EAFA697FE013796CE01ED
:104A80004F961192E817F907E1F781E08B871C86B2
:104A9000BD86AE86D10113968D919C911497019697
:104AA00014969C938E931397A0E0B0E08F87892F84
:104AB0009A2FAB2FBB27888B198A1A8AA496EEAD42
:104AC000FFADA4972081277041155105C1F1FA016E
:104AD00080819181A281B3810097A105B10579F10F
:104AE000122F110F110F145F1F83FE0173967A01AD
:104AF000BE01695F7F4F822F90E00396880F991F58
:104B0000880F991F680F791F16C0D7016D907D908F
:104B10008D909D907D0160825527492D382D272D40
:104B200021839401442755272283892D9927AA2779
:104B3000BB2783833496E617F70739F703C08CE069
:104B40008F831CE0F1018485958562854489212F3E
:104B500030E08E01095F1F4F0E94B530882309F0B5
:104B60002AC1A496AEADBFADA4978C9186FFEDC0CF
:104B700011968C91837039F0A696EEADFFADA69795
:104B8000EF2B09F416C2FE017F96CE01815A9F4F8A
:104B90001192E817F907E1F7A496AEADBFADA4975F
:104BA00011968C91982F9370933041F48695869549
:104BB00090E00C966C01EE24FF241EC0913031F081
:104BC0000CE0C02ED12CE12CF12C16C0A696AEAD77
:104BD000BFADA697ED91FC9111970190F081E02D6A
:104BE000CD0119956B017C018CE090E0A0E0B0E074
:104BF000C80ED91EEA1EFB1ECF8ED8A2E9A2FAA2C9
:104C000082E08BA31CA2BDA2AEA2D10113968D910E
:104C10009C911497A0E0B0E08FA3892F9A2FAB2F1F
:104C2000BB2788A719A61AA6A496EEADFFADA49738
:104C30008181982F9370913071F4A7019601F1E46E
:104C4000CF16D104E104F10420F020E430E040E08C
:104C500050E0590126C0933021F5A696AEADBFAD08
:104C6000A69786958695FE01BB96282F30E0245F97
:104C70003F4FCE014F96280F391F02C08D9181936F
:104C8000E217F307D9F7A496AEADBFADA49711967E
:104C90008C9186958695A82EBB24ECE0F0E0AE0EB4
:104CA000BF1E91E0BBE26B2E712C6C0E7D1EAFE13E
:104CB0008A2E912C8C0E9D1E42C0A496AEADBFAD27
:104CC000A49711968C9183708130C1F4A696AEADF5
:104CD000BFADA697ED91FC910280F381E02D992361
:104CE00019F4B501C40104C0B5016C507040C30192
:104CF000AC01A6968EAD9FADA6971995F10184855E
:104D0000958562854489950184010E94B530882388
:104D100009F051C0C501A0E0B0E0C81AD90AEA0AFA
:104D2000FB0AA7019601F1E4CF16D104E104F104D6
:104D300020F020E430E040E050E0590190E0C11460
:104D4000D104E104F10409F0B8CF1B821C821D825A
:104D50001E82AA24BB246501A1961FAE1EAEA19798
:104D6000FFE14F2E512C4C0E5D1ECE01815A9F4FFC
:104D7000A8969FAF8EAFA897F2011192A896AEADFC
:104D8000BFADA897EA17FB07C1F7E0E4F0E0FA83AC
:104D9000E983D1011C968D919C911D971A966C9177
:104DA0001A9751964C919E012F5F3F4F82010E94AE
:104DB000B431882339F061E070E080E090E00E9437
:104DC0002D3AF7C0A196EEADFFADA197EF2B51F0B4
:104DD0008B819C81AD81BE81A816B906CA06DB060F
:104DE00009F050C0D20114968D919C9115970397AC
:104DF000A1F51696ED90FC901797B1E0EB16B0E296
:104E0000FB0621F5F20100811181228133810D30F1
:104E100011052105310508F4D0C00C501040204088
:104E20003040E2E03695279517950795EA95D1F73A
:104E3000902F9770990F990F990FA496AEADBFADB3
:104E4000A4978C91877C892B8C93B7C061E070E02C
:104E500080E090E00E942D3AB0C0A196EEADFFAD8B
:104E6000A197EF2B79F4D201AD90BD90CD90DC905D
:104E7000B0E4AB16B104C104D104C8F4A296AFAE3D
:104E8000A29719C02B813C814D815E81D601C5015D
:104E9000821B930BA40BB50B81349105A105B105C1
:104EA00030F4EA2DE21BA296EFAFA29704C0F0E423
:104EB000A296FFAFA297A6968EAD9FADA697892B1F
:104EC00009F45EC0A496AEADBFADA49711968C91C7
:104ED00083708130A1F4A696AEADBFADA697ED91DB
:104EE000FC9111970190F081E02DCD01A2966FAD5C
:104EF000A29770E0A2019E012D5F3F4F1995A496E5
:104F0000EEADFFADA497818183708330C9F5EB804E
:104F1000FC800D811E8120E030E040E050E0A29650
:104F2000FFADA2976F2E77248824992414C0A696EB
:104F3000EEADFFADA697EE0DFF1DD201A20FB31F80
:104F40008C9180832F5F3F4F4F4F5F4F0894E11C40
:104F5000F11C011D111D261537054805590580F462
:104F6000A496AEADBFADA49711968C91869586950B
:104F700090E0A0E0B0E0E816F9060A071B07B8F2D7
:104F80008B819C81AD81BE81A296EFADA2978E0FE1
:104F9000911DA11DB11D8B839C83AD83BE83A19602
:104FA0008EAD9FADA1970196A1969FAF8EAFA197B1
:104FB000E3CE72E0E72E70E2F72EC701C959DF4F4A
:104FC0000FB6F894DEBF0FBECDBFCF91DF911F911A
:104FD0000F91FF90EF90DF90CF90BF90AF909F9098
:104FE0008F907F906F905F904F903F902F9008959B
:104FF0000F931F93DF93CF930F920F92CDB7DEB72E
:105000001A82198247705981587F542B5983AE01F7
:105010004F5F5F4F00E010E00E9416250F900F9049
:10502000CF91DF911F910F910895EF92FF920F930F
:105030001F93DF93CF930F920F92CDB7DEB77C0112
:105040001A82198263E070E1AE014F5F5F4F20E08A
:1050500030E000E010E00E9416259C0180E2213043
:10506000380739F4F701168215828FEF9FEF94838A
:105070008383C9010F900F90CF91DF911F910F9102
:10508000FF90EF900895AF92BF92CF92DF92EF9290
:10509000FF920F931F93DF93CF9300D000D0CDB733
:1050A000DEB77C0181E089831A8281E090E0F7011C
:1050B000968385838FEF9FEF9483838381E090E0D5
:1050C000A0E0B0E08B839C83AD83BE83E3E0AE2E93
:1050D000B12CAC0EBD1E6E010894C11CD11CC701C1
:1050E00062E070E1A601950100E010E00E94162543
:1050F000F0E28E319F0721F4C7010E941528EFCFFF
:1051000026960FB6F894DEBF0FBECDBFCF91DF91CC
:105110001F910F91FF90EF90DF90CF90BF90AF90D5
:105120000895CF93DF93EB01CB010E944328815078
:10513000904211F483E08A83DF91CF9108952F92FA
:105140003F924F925F926F927F928F929F92AF9217
:10515000BF92CF92DF92EF92FF920F931F93DF9354
:10516000CF93CDB7DEB7A9970FB6F894DEBF0FBEC9
:10517000CDBF6C0168A749A7DC011C96ED90FC909F
:105180001D971A968C91882311F009ED33C13E2C9E
:105190002F2CD701ED91FC910190F081E02DC701FA
:1051A00060E019955C01009711F406ED23C1FC0144
:1051B000808091808114910411F407ED1BC1AEE051
:1051C0004A2E512C4C0C5D1CDC014D925C92F60178
:1051D0008485958560E040E028E030E03E01089459
:1051E000611C711C83010E942035082F882339F42B
:1051F0001981D30114968C91882329F411C0F501EB
:1052000091828082F7C0863059F0D30115968C9137
:105210001597813029F016968C91813009F0E9C0FC
:10522000D701ED91FC910280F381E02D832D922D29
:1052300068A540E029A51995282FF60182878823C3
:1052400011F404EDD7C0D30117968C91F60187872E
:105250008485958560E040E00E94EE32082F882327
:10526000C1F0D5018D929C92D701ED91FC91048003
:10527000F581E02D832D922DD6011A966C9119950A
:10528000F601128661E070E080E090E00E942D3A25
:10529000B1C0113208F010E261E070E080E090E00F
:1052A0000E942D3AD5018D929C92112381F0F60136
:1052B00084859585628540E0212F30E08E010F5F67
:1052C0001F4F0E942035082F882309F08AC0D30180
:1052D00051967C90F60184859585628544E0920123
:1052E0000E945E2C082F882309F07BC010E05E012D
:1052F0000894A11CB11CFAE08F2E912C8C0E9D1EDF
:105300004FC0D6011C968D919C911D971A966C9159
:1053100040E028E030E0012F75010E94EC34082FB6
:10532000882309F05EC0F60144855585D5011296A3
:105330008C91129713969C919C012832310510F0A4
:1053400027E230E0CA01F601628540E0012F7501D5
:105350000E94EC34082F882309F043C061E070E01C
:1053600080E090E00E942D3AD50114968C9188231C
:10537000B1F0F4018581863091F48681813079F431
:105380008781813061F4C601BE016D5E7F4F0E944E
:105390000724D50115968C91F601838704C01F5F01
:1053A000171508F4AECFD6011B962C911B9722231C
:1053B00001F11C968D919C911D971A966C9140E07D
:1053C0000E94BD32082F882361F4F60116821582EF
:1053D0008FEF9FEF9483838382E0828381E08187D4
:1053E00009C081E498E0602F40E150E00E94B8429B
:1053F00001C001ED802FA9960FB6F894DEBF0FBE55
:10540000CDBFCF91DF911F910F91FF90EF90DF9073
:10541000CF90BF90AF909F908F907F906F905F9054
:105420004F903F902F9008950F931F938C01FC0194
:10543000868160E00E94B93C81E090E00E94863A5B
:10544000F801868161E00E94B93C81E090E00E9411
:10545000863AF801868160E00E94B93C84E690E0DB
:105460000E94863A1F910F910895CF92DF92EF929A
:10547000FF920F931F93CF93DF93D82EC92E282F1F
:10548000392FC9018C01C0E0D0E0E62EFF24F801DD
:10549000878161E00E94063CB7010C2E02C0759521
:1054A00067950A94E2F76170F80187810E94B93C20
:1054B00021960F5F1F4FC830D10549F78D2D9C2DC8
:1054C0000E94142ADF91CF911F910F91FF90EF90CE
:1054D000DF90CF900895CF92DF92EF92FF920F93DB
:1054E0001F93CF93DF93D82EC92E282F392FC901B0
:1054F0008C01C0E0D0E0E62EFF24F801878161E056
:105500000E94063CB7010C2E02C0759567950A945F
:10551000E2F76170F80187810E94B93C21960F5F24
:105520001F4FC430D10549F78D2D9C2D0E94142AA0
:10553000DF91CF911F910F91FF90EF90DF90CF906F
:1055400008951F93CF93DF93EC01162F8C81642F66
:105550000E94B93C8D818F3F19F060E00E94B93CF8
:105560008F8584FF05C0CE01612F0E94352A0EC0B1
:10557000612F70E084E0759567958A95E1F7CE011B
:105580000E946B2ACE01612F0E946B2ADF91CF917E
:105590001F91089541E00E94A12A81E090E00895C2
:1055A00040E00E94A12A0895FC016089862F846052
:1055B000808B6C60CF010E94D02A0895DF93CF9337
:1055C000CDB7DEB728970FB6F894DEBF0FBECDBFBC
:1055D0009C01FE013196A8E2B3E088E00D900192B3
:1055E0008150E1F7F9018389481710F0482F4150A5
:1055F000E42FF0E0EE0FFF1FEC0FFD1F8181680F1D
:105600006068C9010E94D02A28960FB6F894DEBFC0
:105610000FBECDBFCF91DF91089561E00E94D02AE7
:1056200080ED97E00E94863A0895CF93DF93EC01D6
:10563000423018F08F8588608F874B8B1C8A22231D
:1056400029F0413019F48F8584608F8780E593ECD1
:105650000E94863A8C8160E00E94B93C8E8160E0B5
:105660000E94B93C8D818F3F19F060E00E94B93CE7
:105670006F8564FD1DC0CE0163E00E946B2A84E942
:1056800091E10E94863ACE0163E00E946B2A84E990
:1056900091E10E94863ACE0163E00E946B2A86E97E
:1056A00090E00E94863ACE0162E00E946B2A16C00A
:1056B0006062CE010E94D02A84E991E10E94863A7C
:1056C0006F856062CE010E94D02A86E990E00E9438
:1056D000863A6F856062CE010E94D02A6F85606233
:1056E000CE010E94D02A84E0888BCE010E94D42A69
:1056F000CE010E940D2B82E0898BCE0166E00E94D4
:10570000D02ADF91CF9108956F927F928F92AF92BE
:10571000CF92EF920F931F93DF93CF93CDB7DEB766
:105720003C01162F842FF301448325830683E782EF
:10573000C086A18682869E8593879F859487988957
:1057400095879989968761E00E94063CF3018581DF
:105750008F3F19F061E00E94063CF301868161E011
:105760000E94063C112319F0F301178603C080E163
:10577000F3018787C30160E141E020E00E94152B1F
:10578000CF91DF911F910F91EF90CF90AF908F90BD
:105790007F906F9008958F92AF92CF92EF920F9378
:1057A0001F93CF93DF93DC01362F542F722F102FCE
:1057B000AE2C8C2C13961C921E92129784E293E0CE
:1057C00011969C938E9300D00F92EDB7FEB7319651
:1057D000CDB7DEB71982118212821382CD0161E04A
:1057E000432F2FEF052FE72EC12E0E94842B0F9001
:1057F0000F900F900F90DF91CF911F910F91EF902D
:10580000CF90AF908F900895282F8091BB029091F8
:10581000BC02861797074CF081E498E0622F0E9443
:10582000014281E498E00E94424008950F931F9343
:10583000CF93DF93EC018B018091BB029091BC026E
:10584000861797075CF0209721F408C0B8010E94E2
:10585000042CFE01219684918823C1F7DF91CF911A
:105860001F910F910895DC01662319F4FC0136960F
:1058700011C0FC0121E08585861729F02F5F359640
:105880002031C9F717C085E0289FF0011124369612
:10589000EA0FFB1F309771F0A081B181109761F082
:1058A000238190E005C08C91841731F013969F5F9F
:1058B0009217C8F3A0E0B0E0CD010895DC012115F6
:1058C000310511F488ED0895662319F4FC0136962C
:1058D00011C0FC0151E08585861729F05F5F359680
:1058E0005031C9F70FC085E0589FF001112436965A
:1058F000EA0FFB1F309731F06283318320834383AB
:1059000080E0089586ED0895AF92BF92DF92EF9206
:10591000FF920F931F93CF93DF937C01D62E5901F3
:10592000662319F4EC01269611C0FC0191E08585EF
:105930008D1529F09F5F35969031C9F767C085E0D6
:10594000989FE00111242696CE0DDF1D209709F4C3
:105950005DC088819981892B11F487ED58C0C701FA
:105960006D2D0E94332CFC01D5018D939C930097E3
:1059700011F48BED4CC0228126952695822F90E064
:1059800040971CF080E090E80BC081E090E0A0E040
:10599000B0E004C0880F991FAA1FBB1F2A95D2F739
:1059A0000197F80191838083289882EE8EBD0DB413
:1059B00007FEFDCFDEBC0DB407FEFDCF289A289868
:1059C00088ED8EBD0DB407FEFDCF1EBC0DB407FEE5
:1059D000FDCF289A2EB58C81882349F087E790E087
:1059E000E80EF91ED7019C91922B926002C0922F73
:1059F000997F28988AED8EBD0DB407FEFDCF9EBD20
:105A00000DB407FEFDCF289A80E001C086EDDF913E
:105A1000CF911F910F91FF90EF90DF90BF90AF90CB
:105A20000895DF92EF92FF920F931F93CF93DF932E
:105A30007C01D62E662351F18C010A5A1F4FC0E01B
:105A4000D0E0D801ED91FC91A081B18116962D9105
:105A50003C911797CF01F90119958D1589F4AB96F3
:105A6000CC0FDD1FCE0DDF1DE881F981A081B18152
:105A700012962D913C911397CF01F901199507C00A
:105A800021960E5F1F4FC031D105D9F680E0DF911E
:105A9000CF911F910F91FF90EF90DF900895209A82
:105AA000289A219A229A2398209A80E58CBD81E039
:105AB0008DBD6E9880910401846080930401809173
:105AC00005018B7F8093050180910501846080939F
:105AD000050128988AE88EBD0DB407FEFDCF88E148
